:020000041000EA
:1000000000B5324B212058609868022188439860DF
:10001000D860186158612E4B002199600221596106
:100020000121F02299502B49196001219960352056
:1000300000F044F80222904214D00621196600F024
:1000400034F8196E01211966002018661A6600F04E
:100050002CF8196E196E196E052000F02FF8012189
:100060000842F9D1002199601B49196000215960AB
:100070001A491B48016001219960EB211966A021F2
:10008000196600F012F800219960164914480160C1
:100090000121996001BC002800D000471248134993
:1000A000086003C880F30888084703B5996A0420EC
:1000B0000142FBD001200142F8D103BD02B5186610
:1000C0001866FFF7F2FF186E186E02BD00000240BE
:1000D000000000180000070000035F00212200005C
:1000E000F4000018222000A00001001008ED00E03C
:1000F00000000000000000000000000074B24E7A12
:1001000000200420F7010010CB010010CD010010E9
:10011000C9010010C9010010C9010010C901001077
:10012000C9010010C9010010C9010010CF01001061
:10013000C9010010C9010010D1010010D301001045
:10014000C1010010C1010010C1010010C101001067
:10015000C1010010C1010010C1010010C101001057
:10016000C1010010C1010010C1010010C101001047
:10017000C1010010C1010010C1010010C101001037
:10018000C1010010C1010010C1010010C101001027
:10019000C1010010C1010010C1010010C101001017
:1001A000C1010010C1010010C1010010C101001007
:1001B000C1010010C1010010C1010010C1010010F7
:1001C000EFF30580103800BE00BE00BE00BE00BECA
:1001D00000BE00BEF2EB8871C0A60010ECA60010B5
:1001E0003802001090A31AE71E481F49086006C88D
:1001F00081F3088810471D480068002801D019487D
:10020000F3E70DA40ECC002902D000F012F8F9E7B4
:100210001749184A002000E001C19142FCD116495B
:100220008847164988471649884700BEFDE701C937
:1002300001C29A42FBD37047ECA60010C000002018
:100240006C13002098B90010000004200000042066
:1002500098B90010001004200010042000000000D5
:10026000704700000000000008ED00E0000000D032
:100270006C13002070400020855E001025030010E4
:100280007D5E0010F8B5C046044B10B5002B03D0BE
:100290000349044800E000BF10BDC0460000000054
:1002A000E43C00202095001000B500218BB0002018
:1002B00001F03EFC002815D103A800F005FF00283E
:1002C00017D16B4624331B78079A002B08D10C4BAF
:1002D00008990C48009103A905F0E6FF0BB000BD9A
:1002E000094BF5E701F01EFD0100084805F0DCFFB1
:1002F000F4E701F013F80100054805F0D5FFEDE73C
:100300002C95001074950010209500103495001065
:1003100044950010002902D00122014B1A70704749
:1003200063400020F0B5DE46454657464E46E0B5F0
:10033000B3B001F0D5FA01F0C1FB002180460020E6
:1003400008F00AFB05F0DCFE01200021404206F027
:10035000F5FC01F031FB4346002B0AD016E00130DA
:1003600002F03AFD01200021404206F0E7FC01F0D6
:1003700023FB01F0A3FB0028F1D0642002F02CFD48
:100380000A220021002003F02FF8FEE72BAB9B464A
:10039000CD4BCE4F9946CE4BCE4E0493CE4B0993C8
:1003A000CE4B0593CE4B0693CE4B0793CE4B089383
:1003B000CE4B0C93CE4B1093CE4B0393CE4B159359
:1003C000CE4B1693CE4B1793CE4B2093CE4B21930F
:1003D000CE4B0A93CE4B0293CE4B0F93CE4B0E9344
:1003E000CE4B0D93CE4B1193CE4B1293CE4B1D9310
:1003F000CE4B1393CE4B2293CE4B2393CE4B2493D1
:10040000CE4B2593CE4B2693CE4B1493CE4B1E93BF
:10041000CE4B1F93CE4B01930825002007F0B6FA70
:10042000002823D001225946002007F0BDFA0128F8
:100430001CD15B461B780D2B00D1E1E00A2B00D1CB
:10044000DEE0082B00D189E17F2B00D186E1682115
:10045000F25C8A43E1D04A461268501C1F2800D83B
:1004600088E1002007F092FA0028DBD1029B1B787C
:10047000002B00D0B2E1039A1378002B00D186E163
:10048000002300210020137001F052FB002800D04F
:1004900077E1584600F018FE002800D0E1E15B4605
:1004A0001B7E0E9A002B00D0AA4A59460D9805F0E3
:1004B000FBFE5B465A69A84B511E00920B91994274
:1004C00000D9A3E1D30700D5A0E10099129805F067
:1004D000EBFE002400F028FA00F044FA00F060FA85
:1004E0002AADA04200D1DDE1E0B200F071FA0134A2
:1004F00028700135032CF7D10022139B04E0013250
:100500001033142A00D1B8E128A908891988884233
:10051000F5D128A9887A99788842F0D1139B1201E5
:100520009B189A6800995C68914200D9C0E1DB6829
:1005300021001D001A00249805F0B6FE00F05CFAB8
:100540000B984019854200D9C2E129001B9503F0A0
:100550008FF9534618934B461A931B9B199799464C
:10056000259B00259A46434600270B9027941B960F
:100570001C93009BDE1B4E4500D94E4628AB320033
:1005800051463800073300F02FFE002800D0A6E1C6
:100590006B1C984628ABDB79002B25D0002D05D0AD
:1005A0000B9B434502D00F231D4204D141460B9AB9
:1005B000149805F079FE76080AD0554600246A782A
:1005C0002978A0B2013400F03FFA0235A642F6D1F4
:1005D0007C08A0B200F05CFA32005146A0B200F0F4
:1005E0006FFA002800D18DE101200021404206F081
:1005F000A5FB0B9B4F44434500D860E14546B8E757
:100600004B461B68002B00D107E70A2005F080FD50
:100610004B461B6800205446002B05D1C5E0002B3B
:1006200000D1BFE040461C001A00013BF95C715C40
:100630000D42F4D1A246002801D04B461C60002395
:10064000BB543B783C00002B04D132E0637801348A
:10065000002B2ED0F25C1542F8D122000320F15C71
:100660000140012929D0137053780132002BF6D1B3
:1006700023780093002B1CD02000049908F0E6FD9D
:10068000002807D0009B3F2B00D097E06378002B19
:1006900000D093E0099805F085FD059805F082FDEE
:1006A000069805F07FFD079805F07CFD089805F099
:1006B00079FD00234A461360AFE620331370537868
:1006C0000132002BCBD1D3E74C200020502000205A
:1006D000A0950010BDA50010A8950010BC950010B5
:1006E000DC950010049600103496001074960010EB
:1006F0007C96001069400020849600108C960010B3
:1007000094960010D0960010FC96001020970010D0
:1007100063400020249700102C950010389700109B
:100720004897001078970010A097001088A000103C
:10073000F8970010249800105C980010003D0020ED
:1007400098980010C0980010D898001000990010D8
:10075000BCA5001020950010FFFF01004A4612685A
:10076000002A24D1019C591CC9B2615C6824A143B0
:1007700000D152E6494608601800BB5405F0C8FC99
:100780004BE601F0CFFA01000F9805F08DFD012036
:1007900002F022FB01200021404206F0CFFA01F0D6
:1007A0000BF939E64A46A2461360002247E74B465A
:1007B000013A0A981A6005F077FD2EE620000C99A0
:1007C00008F044FD002849D02000109908F03EFDB3
:1007D000002820D10123039A13706AE70023029AAC
:1007E0000A20137005F094FC099805F0DBFC0598CD
:1007F00005F0D8FC069805F0D5FC079805F0D2FC6A
:10080000089805F0CFFCFFF74FFD34E600991198EA
:1008100005F04AFDBBE72000159908F017FD0028F8
:1008200005D02000169908F011FD002820D1179856
:1008300005F0B8FC05F050FC01F04AFA002828D079
:10084000384805F0AFFC05F047FC642002F0C4FA1C
:1008500000210A22080002F0C7FDFEE7FFF724FD91
:1008600027E700F05BFD01000F9805F01DFD8EE706
:100870002100219805F018FD1BE728AB28AA28A91C
:100880009B7A527A097A229805F00EFD00F07CF8E6
:100890007DE701F041FA01F045FA0100209805F0EA
:1008A00003FD06E71D9805F07DFC00F06DF86EE78E
:1008B0002100239805F0F8FC00F066F867E7189B24
:1008C000279C9A461A9B199F99461C9B1B9E9846EB
:1008D00000F05AF821001F9805F0E6FC57E7189B36
:1008E0003C009A461A9B199F99461C9B1B9E984652
:1008F00000F014FD21000200269805F0D5FC00F060
:1009000043F844E7189B41469A461A9B1E9899461D
:100910001C9B199F98461B9E05F0C6FC00F034F8FE
:1009200035E7C046E496001010B5112001F006FC32
:10093000D02380221B0692025A620121132001F06B
:10094000E3FB0121122001F0DFFB0121102001F067
:10095000DBFB0249024808F011FB10BD400D03000B
:1009600000C0034070B5D02480252406AD0232209B
:1009700002F032FA6561322002F02EFAA5611420ED
:1009800002F02AFA70BDC046D023802210B51B06A3
:10099000920202485A6108F079FB10BD00C0034082
:1009A00010B5084B084C82B001932200042301A922
:1009B000064808F061FDA078533843425841C0B260
:1009C00002B010BDAC530000FC3C002000C003404E
:1009D0000304302010B5064C82B018430190042364
:1009E000220001A9034808F047FDE07802B010BDDD
:1009F000FC3C002000C0034010B50E4C82B02368C0
:100A0000C82B06DD0C4805F0CDFB642002F0E4F9AC
:100A1000FBE70A4B0A4A019301A90423094808F09D
:100A20002BFD092002F0D8F923680133236002B0BE
:100A300010BDC046E8200020349A0010AC800000B1
:100A4000FC3C002000C00340F0B583B00B00170051
:100A5000694640220C4C060A05000A708870220084
:100A6000CB700A4804234E7008F006FD482301A904
:100A70000B702200042305484E708D70CF7008F073
:100A8000FBFC03B0F0BDC046FC3C002000C00340AE
:100A90004C2300B583B001A90B70030A4B700023EF
:100AA0008870CB70044A0433044808F0E5FC052044
:100AB00002F092F903B000BDFC3C002000C00340EE
:100AC000F0B54546DE4657464E46E0B5050085B0D2
:100AD000002A3AD000239A46204B894698460023A4
:100AE00047469B4603AC019207E001239A44013339
:100AF0009944019B0135534527D0282323705B4639
:100B00002E0A3A002100E370154804236670A57090
:100B100008F0B2FCFB783A001B02984620232370B1
:100B20005B462100E3700E4804236670A57008F050
:100B3000A3FC4A465178127809020A434146FB78E1
:100B40000B439A42D1D0002000E0012005B0F0BC58
:100B5000BB46B246A946A046F0BDC046FC3C0020BC
:100B600000C00340F0B5C646434C8046626820682A
:100B700000B590423ED2A368E568AB423ED2591C14
:100B8000A160E6180130377C2060904232D2A94241
:100B900059D20233A36061180D7C3B002A00303B20
:100BA0000130303AD9B22060D2B23800092945D993
:100BB0000323324CE15D0B40022B3CD03B00413B18
:100BC000DBB2052B52D801003739092A0CD903238F
:100BD000605D2A000340022B2AD0413DEBB2052B79
:100BE00008D84B1C06D0373A434609010A43012076
:100BF0001A7000E0002080BCB846F0BD8023151AB2
:100C00005B009D420CD82A001D4900F0A9FF002876
:100C1000F1D01B4B0121103BDD6005CB0023AFE77A
:100C20001D0017492A0000F09BFF0028F1D1E2E7E0
:100C3000203A1500D1E720380700BFE7092AD3D9A9
:100C400019000E4CC3E78023121A5B009A4200D9A8
:100C50001A000B4D1600290000F082FF0028CAD0B0
:100C6000103D012300212868EE6093E7092AC1D9CD
:100C700001214942ABE7C0461C3F0020BDA5001042
:100C80002C3F0020F0B55746DE464E464546E0B5BF
:100C900085B00700FFF766FF00287DD002AB581D26
:100CA000FFF760FF002877D002AB981DFFF75AFFCF
:100CB000002871D0381DFFF755FF00286CD06B4617
:100CC0005D7B9A7B2B0213437B803B78AD183A798E
:100CD0005D19AA189046002B66D0524C524B002644
:100CE000B9462068019354E0A368E768BB4269D223
:100CF000591CA160E5182D7C0130AA462060904265
:100D00004AD28F4200D875E0023330225746A360A2
:100D10006118097C5242BB189C46DAB20B000130C4
:100D2000303B2060DBB2092A5ED9019A9346D25D3E
:100D3000150003222A40022A02D1203FFAB292462D
:100D40005246413A052A68D83A00373A092B13D956
:100D50005B465B5C8C461D0003232B40022B04D1B9
:100D6000223B9C468C446346D9B24139052913D8AD
:100D7000531C11D06346373B120113434A46C44605
:100D8000053293559C444B461B780136E0469E4203
:100D90000AD262688242A7D8022005B0F0BCBB46E6
:100DA000B246A946A046F0BD02ABD81DFFF7DAFE59
:100DB0000028F1D06B46D87B4044C0B20028ECD06C
:100DC0000320EAE78023171A5B009F4200D91F0027
:100DD0003A00164900F0C4FE0028DDD001210023AE
:100DE00020686268E76084E7092BC5D90E4B62462C
:100DF0009B46ADE78023121A5B009A4200D91A0085
:100E00000A49170000F0ACFE0028C5D0074B0021AE
:100E1000103B1868DF60012377E7092BBCD901225A
:100E2000524295E71C3F0020BDA500102C3F00203A
:100E3000F0B5DE4657464E4645468822E0B54F4C53
:100E4000C5B00500019120000021520003F0A0FB75
:100E50000023270000209A4699469B460093484B62
:100E6000484E98466560103785420FD9A368E268FE
:100E700093422AD25A1CE318A2601A7C0130B35C58
:100E800020601B0704D565688542EFD8062302E081
:100E90003A2A08D00223180045B0F0BCBB46B2463F
:100EA000A946A046F0BD002303AD28002B706B714E
:100EB000AB71FFF7E7FE2B7800285DD12A79052A70
:100EC000E8D84046910041588F4680232D1A5B0098
:100ED0009D4200D91D002A00390000F041FE002883
:100EE000D4D0012200232068E560C4E76879A9799D
:100EF000022A35D0022BCDD10006090408438246D0
:100F000020686568C0E7042BC4D12068F9E7002B8E
:100F1000C0D14A46002ABDD05A46012101328A4337
:100F200001990A60B7E76A88524499188A421FD823
:100F30008020800281421BD84846002802D00098B9
:100F4000904217D8002BDBD08B4504D30123994660
:100F500000912068D5E701238B4699460091F8E778
:100F6000022B97D100030901084382462068C8E795
:100F7000042390E705238EE703008CE71C3F002045
:100F8000C8A10010BDA50010F0B5C64600B5454B80
:100F9000C2B098461B78002B63D1434C434D206868
:100FA0000CE0A368E268934211D25A1CA260E318D5
:100FB0001A7C0130AB5C20601B0720D56668864236
:100FC000EFD80626300042B080BCB846F0BD802382
:100FD000361A5B009E4200D91E003200344900F0F0
:100FE000BFFD0028EDD001220023E660E318A260D7
:100FF0001A7C2068AB5C013020601B07DED43A2AE3
:1010000001D00226DEE7002301AF38003B707B7180
:10101000BB71FFF737FE3B78002840D13E79002EA8
:1010200013D1002B19D0822239005200214803F03D
:10103000B5FA21497B880968204A5B1813600122B0
:101040001F4B1E601F4B1A70BCE7012E25D07A790A
:10105000B979022E07D0042E12D043461B78002BFC
:101060009DD00026AEE7022BACD1134B1203090131
:101070000A431A6043461B78002B00D18FE7F0E744
:10108000022BBED10C4B120609040A431A604346D8
:101090001B78002B00D182E7E3E743461E70060071
:1010A00090E7C0466F4000201C3F0020BDA5001007
:1010B0002C3F0020083E00202C1F0020003E002076
:1010C000043E00206D400020F0B5CE46474680B576
:1010D00087B0060002A9684600F02AFD041E58D118
:1010E00002A808F0F7F8032821D88023009D9B026E
:1010F0009D424CD8EB074AD4A9460022314B170039
:101100001A700022304B1D60304B1A60002E08D040
:1011100030000D3202A903F041FA4B46756133618C
:101120003776200007B0C0BCB946B046F0BD01A973
:101130000B5C2E2BD9D16B4605331A5C244DAB5C6E
:101140001F0003233B40022B00D1203A482ACCD178
:101150006B4606331A5CAB5C1F0003233B40022B3B
:1011600000D1203A452AC0D16B4607331A5C0323CD
:10117000A85C0340022B00D1203A582AB5D1009830
:101180000190FFF755FE051E05D00400C9E70224B3
:10119000C7E70124C5E70F4B882298461800520084
:1011A0000021009F03F0F4F943465F600A4BB94603
:1011B0001D600A4B01221D60094B1D70094B1D70FB
:1011C000019D9BE76B40002098200020EC20002030
:1011D000BDA500101C3F00202C1F0020043E002055
:1011E0006D4000206F400020F0B557464546DE4672
:1011F0004E469046E0B587B00493404B80441B6850
:10120000070002910392984504D83D4B1C68059352
:10121000844207D0042007B0F0BCBB46B246A946C2
:10122000A046F0BD0800FF2103F0B2F9354B1B7852
:10123000002B59D0344E3378002B0AD102E04E46B1
:1012400000233370FFF7A0FE0028E4D13378002B91
:101250002FD0B1462D4B9B462D4B9A462D4B0193DB
:101260005B461D6853461B68EB18984521D9019AC7
:1012700014786419A742E2D239009F4200D21900C3
:101280004646A04500D92600029BC81B1818224BD1
:10129000721A491B591803F081F95346761B1E60D8
:1012A000019B1B789E421AD34E4600233370A04503
:1012B000C8D8039A002A15D0029B9A1802E001337D
:1012C0009A420FD01978FF29F9D00123049A002AF5
:1012D00000D013704246059B00201A609BE7A04592
:1012E000BED8E6E70023F1E72000039A029900F058
:1012F00037FC0028DDD101208DE7C0469820002072
:10130000EC2000206B4000206D400020003E0020BB
:10131000043E0020083E00200D3E0020062803D891
:10132000024B8000C05870470148FCE7E0A1001064
:10133000D89A001010B504004168006808F084F8DD
:10134000A168002902D0E268002A00D110BD2068FF
:1013500008F06AF8FAE7C0468022F0B5574CDDB0D5
:1013600000215201200003F013F9554B082223807D
:1013700090235449E01CA37003F010F9524A8123D2
:101380002282524A5B00A2820322A381023BFF3BDE
:10139000A373A2752376A3767D322333E2544C4B9C
:1013A0002000E3844B4B4C4D23852A233F3AE254E3
:1013B0002900363A2B3003F0F1F820000822474983
:1013C000363003F0EBF8FF23454A5B00E252082277
:1013D00002335242E25004331732E2548023C022D7
:1013E0001B014049E018D20003F0D8F83E4B002121
:1013F0001422E01803F0CCF8E0231B01E31803CD1E
:1014000003C31A002B8839491380AB7804A8937062
:101410000822374B5E26E2545732FF3203F0BEF803
:10142000344B14220021E01803F0B2F8E2231B0130
:10143000E218314BFF3621CB21C211001A880A80F5
:1014400020229B788B702D4BE2542D4B1E3AE25498
:101450006A462C4BE6522C4B83CB83C21B682B4F26
:101460001360FA2269463800D20002F063F80028BF
:1014700002D000205DB0F0BD80220021520120008A
:1014800003F086F8320004A9164803F087F8204BD1
:10149000FA220093802369465B0138009200019391
:1014A00002F048F80028E4D101221A4B52421A6097
:1014B000194B1870194B18700130DBE7CC2800204D
:1014C000EB3C0000F49B00100220000004F8FFFF3A
:1014D0002950000052560000009C00100C9C001087
:1014E00055AAFFFFCC2A00200C0E0000249C0010FF
:1014F0000B0E00002C0E0000189C00102B0E00009C
:101500003A0E00003C0E00001CA200103513001023
:1015100000F017007C120020674000206840002087
:10152000F0B5DE4657464E464546E0B5B64BB74C9D
:101530001B78A544002B00D11FE1B54B80251B680B
:10154000E026984680235B019946B24B0CAF9A4641
:10155000ED00360109E0B04B22003800F11803F02D
:101560001DF82D1B12D03F1936194B463105090DB8
:101570005C1AAC4200D92C00330B4345EBD122005E
:101580003800514403F00AF82D1BECD1002000264E
:101590001E250327A14C0CAB1A78002A23D0E52A7C
:1015A0001CD0DA7A0F2A19D0154217D11A7AA15C09
:1015B0003940022900D1B3E0422A00D1B4E0482AE0
:1015C0000CD15A7A9146A25C110003220A40022AE9
:1015D00000D1D4E04A46452A00D1D6E0FFAA203304
:1015E00034329A42D8D100238D4C8E4F8E4D2360D9
:1015F0003B602B70002800D1B6E0012800D051E1FB
:10160000F3690593002B00D14EE1337A834A190028
:101610000693D35C91461A0003231340022B00D19A
:10162000C7E0482900D1C6E08023059A9B029A4270
:1016300000D9DCE01300DB0700D53BE17B4A059BCA
:10164000BA469B18728B5B0A9146794A07930192BE
:101650005B00023AD31803936E4BAB4604934346A8
:10166000C846A14608960990029343469A1E714BBC
:1016700092B29A4200D913E14246019B1A80039A22
:101680009A4200D0B5E04C465746059B089E236021
:10169000079B5D463B6033780998202B00D10DE114
:1016A0002B707378202B1FD06B70B378202B00D158
:1016B000FEE0AB70F378202B00D10BE1EB703379B7
:1016C000202B00D104E12B717379202B00D1FDE098
:1016D0006B71B379202B00D1F6E0AB71F379202B3D
:1016E00000D1EFE00820EB71069B202B14D02E23B5
:1016F0002B54337A421C202B00D1DDE0AB54737A9B
:10170000811C202B00D1DBE06B54B37AC21C202B50
:1017100000D1D1E00430AB5400232B54002024E04E
:10172000203A422A00D04AE7597A625C3A40022ABB
:1017300000D12039492900D050E79A7A9146A25C1D
:10174000110003220A40022A01D1223A91444A465A
:101750004E2A00D042E7FFAA1E0034322033013067
:101760009A4200D018E73EE70120334B9D44F0BC7D
:10177000BB46B246A946A046F0BD0720F5E7223A8F
:1017800091444A46452A00D028E79A7A9146A25CBD
:10179000110003220A40022A01D1223A91444A460A
:1017A000582AD8D0FFAA203334329A4200D0F3E628
:1017B00019E7203935E74B46717A5B5C1A00032341
:1017C0001340022B72D0452900D02DE74B46B17A49
:1017D0005A5C03231340022B00D12039582900D032
:1017E00022E7FA23059ADB029A4200D826E7042072
:1017F000BBE780224346920042445D0892B2022633
:10180000AD180BAF24E0C0466E400020CCFBFFFFBC
:101810007C120020CC28002000E01710BDA500108D
:10182000C4280020F020002038170020FF0100000D
:10183000F4200020F603000034040000264B2200B0
:101840003800E91802F0AAFE361B15D03F192D19F1
:1018500080232905090D5B015C1AB44200D93400CC
:10186000029A2B0B9342E9D1049B220038005918AD
:1018700002F094FE361BE9D16B469A8D4346DB0796
:1018800009D41205130D154A9846934208D8019BB6
:1018900002330193E9E61309104A98469342F6D9B8
:1018A000062062E7022060E703205EE720398AE72E
:1018B000022019E7052058E710002DE7002013E764
:1018C000080029E707200FE706200DE705200BE7B2
:1018D000042009E7032007E700E01710F70F0000D6
:1018E0000023BF201900254A40039042594170B59A
:1018F0000125234C6D42217022490D602249234D60
:101900000B7023492B700B7022490B7022490B700E
:1019100082421CD808222149214807F0D9FB00281F
:1019200008D180221F4B920019785B781B020B4371
:10193000934210D0FFF710FD002807D0FFF7F0FD0D
:10194000194B187043425841287070BD207007220F
:10195000154B1A70F9E78022144BD20019785B7886
:101960001B020B439342E5D1114B1B78552BE1D160
:10197000104B1B78AA2BDDD1E0E7C04698B90000D8
:101980006E4000207C12002067400020654000204F
:10199000684000206A40002064400020F49B001052
:1019A00003E017100BE017107812002013E0171057
:1019B000FEE11710FFE11710F0B5344C85B0237825
:1019C000002B39D1324D2B78002B23D0314B1F0007
:1019D0001B78002B20D0304B1E001B68002B1CDB1B
:1019E0007F332E4AFF331B03009302928023FA2297
:1019F0005B0169462A4892000193039301F09AFD26
:101A0000002801D1387008E00722264B1A70002305
:101A100023702B7005B0F0BD1F4E01235B42336075
:101A2000FFF77EFD00221F4B18701F4B1A701F4BD3
:101A3000002812D01A70EAE701F0C0FA00291AD083
:101A4000FA220023920001F051FF194B1B68C01AC3
:101A5000184B9842B6D90E4DB8E701321A7001F012
:101A6000ADFA00290CD0FA220023920001F03EFFCB
:101A7000114B1860CBE7FA21890001F0F9FEE4E789
:101A8000FA21890001F0F4FEF2E7C0466840002028
:101A90006A400020674000207C120020CC280020F3
:101AA00035130010781200206540002064400020AB
:101AB000D43C0020E7030000301F002010B5164C76
:101AC0002378002B04D1154B1878002814D110BDB1
:101AD00001F074FA00291AD0FA220023920001F0D2
:101AE00005FF0F4B1B68C01A0E4B9842EBD9002321
:101AF00001222370094B1A700B4B00201B78002B1E
:101B0000E5D10A4B1868431E9841C0B2DFE7FA21BD
:101B1000890001F0ADFEE4E764400020654000204C
:101B2000301F0020E703000078120020C4280020A6
:101B30000B0010B5002802D0064A12680260002B84
:101B400004D00D221800044902F028FD034B187838
:101B500010BDC046C428002038170020781200208D
:101B6000F0B5DE46574645464E46E0B54C4C8046FD
:101B700023788B46924687B0002B0AD1494B1878C0
:101B800000281AD107B0F0BCBB46B246A946A04611
:101B9000F0BD01F013FA00297AD0FA220023920056
:101BA00001F0A4FE404B1B68C01A404B9842E5D997
:101BB0000023012223703B4B1A703D4B1B78002BF6
:101BC00062D13C4B1A68002A5ED0434651465B18EE
:101BD000934259D8002960D0374B1B680293374B8A
:101BE0000393374B05934146029A4B0A93424BD2DB
:101BF000039A12780492002A48D0CA058021D20D97
:101C00008900891A50460091514500D900900599E4
:101C10005B005D5A80230735009E6D02AD18AA193E
:101C20001B039A4230D8274B5F461B689946264BC8
:101C3000019309E0254B22003800E91802F0AEFCC0
:101C4000361B14D03F192D1980232905090D5B017E
:101C50005C1AB44200D934002B0B4B45EAD1019BEE
:101C600022003800591802F099FC361BEAD1594677
:101C7000009B5246C9188B464146C918D31A88465C
:101C80009A46B0D104987DE700207BE7100079E701
:101C9000FA21890001F0ECFD84E7012072E7C046DB
:101CA0006440002065400020301F0020E703000052
:101CB00078120020C4280020F02000206E40002070
:101CC000F42000207C120020CC28002000E0171017
:101CD0000D4B10B51B78002B04D1072200200B4BB5
:101CE0001A7010BDFFF738FB0028F6D0FFF718FC7C
:101CF0000022064B1870064B01381A70054B1A70FB
:101D000043425841C0B2ECE76E40002078120020F8
:101D10006540002064400020014B18787047C046A1
:101D200078120020072803D8024B8000C058704763
:101D30000148FCE7FCA10010849D001070B515005F
:101D40001C0008000822074902F028FC2800102285
:101D5000054902F023FC04222000044902F01EFC85
:101D600070BDC0469C9D0010A89D0010BC9D001039
:101D7000064B10B51C78002C01D0200010BD0023AC
:101D80003A22022106F0F2F8F7E7C0466E40002042
:101D90008023DB000B6080239B0013807047C046CC
:101DA000002B04D0002A02D1024B01321A7001200C
:101DB0007047C0466A40002001207047F8B547468A
:101DC000CE4680B51F00214B994239D8089BD018C8
:101DD00080239B00984233D81D4B1B78002B2FD0BB
:101DE000089B49028D18EA1880231B039A4227D8C2
:101DF000089B002B22D01E00164B1B689846164BE2
:101E0000994609E0154B22003800E91802F0C6FB9C
:101E1000361B13D03F192D1980232905090D5B01AD
:101E20005C1AB44200D934002B0B4345EAD122009E
:101E30003800494402F0B2FB361BEBD1089801E0B0
:101E400001204042C0BCB946B046F8BDFF030000C7
:101E50006E4000207C120020CC28002000E01710EB
:101E6000F0B55746DE464E464546E0B51F00474BA7
:101E700085B099425CD80E9BD01880239B00984275
:101E800056D8434B1B78002B52D00E9B49028D181D
:101E9000EA1880231B039A424AD80E9B002B50D08D
:101EA0003C4B2C0B98461B689A469C4263D03A4B9D
:101EB0009B461B78002B02D05346002B61DA374B30
:101EC000A24699460E9E8022354B2103C9184846EA
:101ED000520102F063FB43461C6080232805000D7D
:101EE0005B011C1AB44200D9340022003900484476
:101EF00002F054FB5B460122361B1A7021D02D19CB
:101F00003F192C0BA245E8D053464A467F33FF3396
:101F10001B03009302928023FA225B016946214849
:101F200092000193039301F005FBA2460028CAD05A
:101F30000120404205B0F0BCBB46B246A946A046CF
:101F4000F0BD0122184B1A700022184B1A70184B62
:101F50001A7001F033F8002908D0FA220023920009
:101F600001F0C4FC134B18600E98E3E7FA218900D6
:101F700001F07EFCF6E7084B0E9E9B46074B994608
:101F8000ABE7064B0E9E9946BEE7C046FF03000036
:101F90006E4000207C12002067400020CC280020EA
:101FA00000E0171035130010684000206540002045
:101FB00064400020D43C002010B500F0FFFF002951
:101FC00007D0FA220023920001F090FC034B186026
:101FD00010BDFA21890001F04BFCF7E7D43C00204A
:101FE00010B50B78352B04D101220020054B1A7057
:101FF00010BD00232022052105F0B8FF012040423A
:10200000F6E7C0466A40002010B5FFF757FD0028EC
:1020100001D0024810BD0248FCE7C046C8A200102B
:10202000B4A2001010B5FFF749FD002801D0024806
:1020300010BD0248FCE7C04668A2001048A200108C
:1020400070B5002808D1294B29484380063BFF3B47
:102050009C466346038070BD052820D802282FD0F7
:1020600003281ED0234B8000C458200007F032F90B
:102070000500202811D8C0236A1C52009B0013437E
:102080009C4600282BD000231948821CE15C0133B8
:1020900011800232AB42F9D3DBE72025EBE70020C9
:1020A000D9E7154C2378002B1BD0200007F012F93C
:1020B000C023421C52009B0013439C460500E0E7EE
:1020C000FFF7FCFC002805D0CB239B009C46152580
:1020D0000A4CD8E70A4B14259C460A4CD3E704481F
:1020E000B7E71121200004F0F9FADEE70904000047
:1020F0009C2000202CA20010344000200C9F0010D7
:102100002A030000F49E001043468C464021084AF2
:1021100008B483009A58C0005140C0220A400549C3
:102120005A50054BC0186346436008BC9846704738
:1021300004C0014004D00140004001400123D022EE
:102140008340120693629361074A830099584022A4
:10215000514080320A400549C0005A50044BC01813
:10216000052343607047C04604C0014004D00140CD
:10217000004001408023DB051868000F7047C0460F
:102180000FB400B5084883B004F00CF8049B002B92
:1021900007D005A91800019103F056FE034804F08A
:1021A00001F8012003F068FE3C9F0010809D0010A4
:1021B00070B58C461600EFF3108472B60F490B68A9
:1021C000002BFCD0BFF35F8F6346DB08C5180722E6
:1021D000C05C63461A40012393401A000240034248
:1021E00007D118432870BFF35F8F0A6084F310880B
:1021F00070BD61463000FFF7C3FFC0462C0100D020
:10220000F8B5CE4647468C4680B51C00EFF31088E3
:1022100072B61C490B68002BFCD0BFF35F8FA24243
:1022200021D80723994602E00132944218D3494647
:10223000012611408E40D308C718C35C1E42F3D15B
:10224000100033433B70BFF35F8F00220D4B1A60C9
:1022500088F3108800280EDBC0BCB946B046F8BD34
:1022600001204042EFE7BFF35F8F00230B6088F34C
:102270001088012040426346002BEDD00898FFF7FC
:102280007FFFC0462C0100D0044A1078431CDBB20B
:10229000172B00D9102313707047C04680120020FE
:1022A00000B5054B83B00100009318221F2303489B
:1022B000FFF7A6FF03B000BD4C9F00104420002094
:1022C0000021044B044ABFF35F8F02C39342FAD14B
:1022D0007047C046000100D0800100D0084B094A79
:1022E0001360094A1360094A1360094A1360094AD6
:1022F0001360094A1360094A1360094A1360704762
:102300008080808000E400E004E400E008E400E075
:102310000CE400E010E400E014E400E018E400E065
:102320001CE400E01F2318401E3B8340002905D019
:10233000C021044A4900535013607047802201496C
:102340008B50FAE700E100E070B50D00EFF3108666
:1023500072B60F4A1368002BFCD0BFF35F8F0D4B92
:1023600010309B6884001B590B4A934203D09D4256
:1023700001D001F02BF9074B9B681D51BFF35F8F14
:10238000BFF35F8F0022024B1A6086F3108870BD86
:10239000240100D000ED00E0C1010010F0B5DE46E0
:1023A00057464E464546E0B5824683B08B461700F9
:1023B000EFF3108872B6604A1368002BFCD0BFF3AD
:1023C0005F8F00255D4B5D579946002D00DA9AE03E
:1023D0004A466B005A4C5E19B6000193A31900934C
:1023E0009B791370574B9A68534610339B00D15812
:1023F00099460B1B2F2B32D9534B994200D098E0B2
:10240000019B0236ED18514BAD006353504BA6199A
:10241000043B9B1B4F4A1B055B0D651913436B80E7
:102420004D4B0121AB80FF23AB715B46AB60009B42
:10243000EF710B4319004A46424B9B689950BFF31A
:102440005F8FBFF35F8F00223B4B1A6088F31088C9
:1024500003B0F0BCBB46B246A946A046F0BD012081
:102460000A008243D379B446BB422DD83B4BB51CFE
:10247000190013001B1B5B415943090D8C46334B5C
:102480006519A353324B0099043B5B1B1B05314D6F
:102490005B0D2B4304364B80A619131F9B1B1B059A
:1024A0005B0D1D4363468B715B468B602C4B8D80AF
:1024B000CF7113600143BEE75800C0188000201898
:1024C000C679BE4225D902000623D356002BF3DA83
:1024D0009A46131D9C4623486346009E9571043E10
:1024E000F61A36051B4B760D1E43019B96805A1932
:1024F00053469200A418A3715B46194AA08022603B
:10250000E771A36097E701F061F800254B465D573E
:102510005EE766469A46131D9C4690880436400541
:102520000015A6196044801B00050A4E400D30437B
:10253000D2E701F04BF863E7240100D06C400020A3
:102540008412002000ED00E0C101001000A1FFFF97
:10255000B412002000E0FFFF01BDFFFFAAAA0000A7
:102560000148804701BD0000F0B54546DE465746AC
:102570004E46E0B50D0083B0EFF3108872B6604AA6
:102580001368002BFCD0BFF35F8F5E4B5E499A68E7
:10259000030010339F00D45999468C423ED0AC4280
:1025A0004FD05A4EA21B2F2A38D8594B1A689C4636
:1025B00013000122824013401F22024001209A464C
:1025C00090406346802283469850BFF35F8FEFF3BD
:1025D00005830193002B36D0994501D000F0F6FF1A
:1025E000012322009A439068854208D176E04B008F
:1025F0005B189B00F3189868854236D01A000621B4
:1026000051560029F3DA854254D05346002B27D087
:10261000C02259463E4B520099501960394B9B6875
:10262000DC51BFF35F8FBFF35F8F0022344B1A6022
:1026300088F3108803B0F0BCBB46B246A946A0465A
:10264000F0BD0C00EAE7220001339A43906885420E
:10265000D5D106201056130000280ADA0C0031E00C
:10266000802359462A4AD150D8E706201856002818
:1026700021DB42001118890075188946A968996004
:10268000E979D971062169569971002924DBAD8851
:10269000F11A6D052D154D44491909051D4D490DBA
:1026A0002943998013181C4A9B001178F3189971DB
:1026B0001070AAE713000199002914D1FF3191711C
:1026C0001649918014490A789A71154A9B1B5B41FF
:1026D0005A43120D0A7098E71049E2E70620105697
:1026E00013000028C5DA0F4A0F49D21A083A5002DF
:1026F000400D014399800D4952080A43DA8084E76E
:10270000240100D000ED00E0C1010010841200207F
:1027100000E100E000E0FFFF6C40002001BDFFFF92
:10272000AAAA0000BE12002000F0FFFF00F8FFFF81
:102730000123034370B59C46EFF30581EFF3108549
:1027400072B6214A1368002BFCD0BFF35F8F1F4B7A
:1027500004001F4AE41A64416243120D1D4C8900B3
:10276000A66852B2765866451CD006215956914249
:102770001CD012215956914222D01E215956914205
:1027800020D02A2159560324914210D0124B197897
:102790001A708171BFF35F8F00220B4B1A6085F3B3
:1027A000108870BDA3680D4C5C50EFE700246100F9
:1027B000091989005B18FF21997109499980E5E79A
:1027C0000124F4E70224F2E7240100D0841200205F
:1027D000AAAA000000ED00E06C400020C10100103A
:1027E00001BDFFFF024BC918890001607047C04658
:1027F00040000034F8B5144C144EB44223D2013ECC
:10280000361B0025FF27F6080EE0FFF73DFD01000F
:102810002000FFF7E7FF002327716371BFF35F8F8D
:102820000834B5420FD001352368002BEDD1FFF7F6
:102830002BFD01002000FFF7D5FF2771BFF35F8F4D
:102840000834B542EFD1F8BD641300206C130020AA
:1028500010B50400FFF718FD01002000FFF7C2FFCC
:10286000FF232371BFF35F8F10BDC04610B5040076
:102870000120FFF715FD034BC01880002060BFF357
:102880005F8F10BD400000340A4B1968EFF31080D1
:1028900072B60A68002AFCD0BFF35F8F1B68BFF3D3
:1028A0005F8F00221A6080F3108840BF0020002153
:1028B0007047C0464C400020F0B5DE4657464E46B5
:1028C0004546E0B585B0EFF3058303221A40B84BC7
:1028D00091005F58012393409B4602925A468846D6
:1028E000B44B1A60B44B03935B46B448436308236C
:1028F000FE5E002E37DA0422BB5E002B00DBA4E074
:10290000BB79002B00D0E4E00823F95E002920DB2E
:102910004B007A695B18DB00D3189D68DC686B1C80
:1029200000D10AE1A54801004144826A0B69AE1A50
:102930009B1A9E4215D30123026A029883401A42D1
:102940000FD09E4800F032FB8C4202DCCCD1854295
:10295000CAD940BF05B0F0BCBB46B246A946A046A6
:10296000F0BD0D61EDE77A69730091469B19DB00BC
:1029700099444B469C68DD6800F018FB8D42BADC38
:1029800000D104E1002D00DAE9E04A464B465269E5
:102990001B699246039A934200D1DAE04A46082125
:1029A000785E528800045146104398470090019188
:1029B0000099019A0B00134300D1D0E013000A00E4
:1029C000002B00DBE7E020002900801A99414B46EC
:1029D0009860D96000229B5E002B00DA8BE75D00D7
:1029E0007C69EA18D200A21800949468D268A246C2
:1029F0008A4200DD7FE702D1844200D97BE70824C8
:102A0000A4463B81BC44009C00972F006546B44619
:102A10003E0006E05E00F218D200A2189768D26865
:102A2000BA468A4207DC00D1CAE0F318DB00E51899
:102A3000E35E002BEEDA4A466646009F13802E8046
:102A40000422BB5E002B00DA5AE73A69EFF31081EB
:102A500072B61368002BFCD0BFF35F8F0423FE5EB9
:102A600001235B42BB803B69BFF35F8F00221A608A
:102A700081F31088002E00DA42E708239946BC460D
:102A80007D69B94463467400A41908229A5EE40083
:102A90002C19002A55DBA7684946E068009706E034
:102AA00087423ED019000023CA5E002A06DB53008D
:102AB0009B18DB00EB18DF688742F1DD0E800023F6
:102AC000E65E2280002EDDDA6746BB79002B00D15E
:102AD0001AE70023BB710822BB5E5A1C00D138E7FD
:102AE0003D0008352E00786903E00E005A1C00D125
:102AF0000AE71A005B009B18DB00C118C35E0225C1
:102B00004C5F002CF1DA01246442E5178C60CD6043
:102B100008257C5F9442E9D033803C890C803A815F
:102B2000E4E79F68BA46009FBA45BBD90E800023F0
:102B3000E65E2280002EA5DAC6E7631C00D0F1E62F
:102B4000FFE649460E800023E65E2280002E99DAD9
:102B5000BAE7534650461B699847002823D14B4695
:102B60001B883A693B81EFF3108372B61168002924
:102B7000FCD0BFF35F8F49467A880A803A697E802D
:102B8000BFF35F8F0021116083F31088B3E68442A6
:102B900000D8F7E6AFE6094800F008FA009B019C70
:102BA000C018614113E753460CCB00920193FFE636
:102BB0000C3F00203C700540B92800100040054043
:102BC000824500D831E736E770B52D4C2569002DD8
:102BD00004D00A212B48FFF705FE70BD2A4E0321C1
:102BE000294800F0D9F9E660FFF74EFB274B032296
:102BF000C018D02322701B061B6801216370244B70
:102C00008000A3600F232061022063806369494232
:102C1000A18019800231198647311D83585218311D
:102C20005A5275325C399952183201319952183220
:102C300001319952183201319952083518329D529A
:102C40000231183299521832013199521832013139
:102C50009952183201319952183201319952183271
:102C6000013199520B4B0C49DC6001303562FFF7A2
:102C70006BFB01210320FFF755FB084B1D60A8E704
:102C8000CC1200204C4000200040054040000034A1
:102C9000FFFF10000C3F0020B928001038600540ED
:102CA00000487047CC12002070B582B000920193AA
:102CB00001000269EFF3108472B61368002BFCD098
:102CC000BFF35F8F0223C85E0D6900283FDB4A69AE
:102CD000430016001B18DB00D218F35A4B80BFF3D9
:102CE0005F8F00232B6084F31088069B1361079B82
:102CF0005361009B019C9360D460538801335B0453
:102D00005B0C1D1C002B20D0ACB203045580234368
:102D10000D69EFF3108C72B62C68002CFCD0BFF359
:102D20005F8F04254C5F148088800A69BFF35F8F32
:102D3000002010608CF310880A7801309040CA6837
:102D400007495050180002B070BD0125DCE7BFF301
:102D50005F8F00232B6084F31088013BF2E7C046AD
:102D60003C20000010B543890A14934219DD53003A
:102D70009B184269DB00D3180469EFF3108C72B61C
:102D80002268002AFCD0BFF35F8F5A880904090C1F
:102D9000914208D00369BFF35F8F00221A608CF361
:102DA0001088002010BD094A0A435A800123026995
:102DB0008371BFF35F8F002111608CF3108802785C
:102DC00003499340C26801205350EBE70080FFFFA6
:102DD0003C20000040787047F0B583B0040000F05C
:102DE000EDF8FA2206000F002000002300219200D7
:102DF00001F062FB8019794104000D1E02DA012402
:102E00002C4D644206267642F71736196F41AF42C1
:102E100012D80FD000F0D2F832003B00121A8B41CA
:102E2000002B13DC002B41D02000290000F006F914
:102E300003B0F0BDA642EDD90026002700F0BEF891
:102E400032003B00121A8B41002BEBDD00F0B6F88C
:102E500032003B00121A8B41002B0ADB0023019346
:102E6000154B3200009315483B00FFF71DFF013062
:102E7000DAD03900124A1348536A994204D8976A43
:102E8000B742D1D29942CFD10768EFF3108C72B616
:102E90003B68002BFCD0BFF35F8F0368BFF35F8FED
:102EA00000271F608CF3108820BFE5E7002ABBD005
:102EB000CCE7C046FFFFFF7F89280010CC1200201E
:102EC000004005404C400020F0B5CE46474680B556
:102ED00004000D0085B0EFF305868946002E12D060
:102EE0002A4A506A884208D3926A401B431E98417E
:102EF0000023A2425B41184300E0002005B0C0BCA3
:102F0000B946B046F0BD224FFB683A7898461800A3
:102F1000039200F04BF8039A131D42469B009B5806
:102F200022001B1A9C462B00121A8B419E4209DC80
:102F300006D020BF154B586A4845DED39A6AD4E7BD
:102F40009445F6D900F03AF822002B00121A8B4172
:102F5000002BEFDB002301930E4B2200009338007F
:102F60002B00FFF7A1FE0028E4DD084B5A6A4A4512
:102F700009D39B6AA34204D301003800FFF7F2FE95
:102F8000D8E74A45F8D120BFF6E7C04600400540E3
:102F9000CC1200208928001010B5024A0248FFF721
:102FA00007F910BD689F0010482000200300416A07
:102FB0000A00986A596A8A42FAD17047034B596AE3
:102FC0000A00986A596A9142FAD170470040054058
:102FD00070B505000E00184A536A1900946A536AC6
:102FE0008B42FAD1200019002C00350024184D41E5
:102FF000AB4216D813D0104B2A005B6A9D4203D90E
:103000000D494B6A9342FCD3934207D10A4A02E02E
:10301000516A994202D1916AA142F9D370BDA0428E
:10302000E9D9054B5B6A1C005A1CEFD00122012430
:103030006442E5175242E3E700400540064A536AFE
:103040009942FCD807D1044B02E05A6A914202D15E
:103050009A6A8242F9D3704700400540F8B50400EF
:1030600006200D0000F064F9002843D0354B3649A6
:10307000E3185A1E934180225B429B0D12049B056C
:103080009B18324A1360324A136018000A68904352
:10309000FBD12C4B2F4AE31859424B4180215B0056
:1030A00049000620995200F043F92900C00000F0C1
:1030B000DFFB0130C3091ED1402701226262A362F7
:1030C000266BF30722D4E36A234B0620E51800237E
:1030D0002B60266300F02CF93900800000F0C8FB5B
:1030E0007023E26A5A400E3313402B601B4B23635C
:1030F0000323A364F8BD1A4A93421CD90023194A3A
:10310000194F6262A362266BF307DCD5134A174B93
:103110000620E250656AA36AAD01ED1800F008F9D7
:10312000134900F0A5FB0100A80200F0A1FB00215B
:10313000FFF74EFFC7E740069A01800E17181A00E6
:103140000300BBE70080FCBF08C0004000E0004077
:1031500000F00040584000202C1000000103000047
:10316000FEFF0000FFFF0000C0FF3F003030000006
:103170004E0E0000F8B5DE464E4645465746E0B5D1
:1031800005008B4618000A99914600F071FB0A9BD6
:103190006C001E0264192E4BA400E418636880467C
:1031A0009E4200D96660C0232F1FFAB29B0192464F
:1031B000E318012A2BD98022264FAD00795912013C
:1031C0001A6000291AD14B4622685B015340E02265
:1031D000134080225201A21813605346012B2BD9B1
:1031E000802380229B011201E250434666607B519E
:1031F000F0BCBB46B246A946A046F8BD786900F0CF
:1032000037FB013043001B18033BFDD2DBE75A4676
:10321000012AD0D102321A60023AA3681A42FCD0C5
:103220004A46236852015A40E0231340802252014B
:10323000A218084F1360AD0058460323216841408F
:103240000B40136001228240A3681A42FCD0C7E7FA
:103250000080004070200020F0B5D6464F4646461C
:10326000440098462418304BA400E41863688A464A
:103270009146C0B5FF2B02D880235B006360C0235A
:10328000061F9B01F6B2E318012E2BD98022274F8F
:103290008500795912011A6000291AD14B4622681B
:1032A0005B015340E022134080225201A2181360B8
:1032B000012E2CD9802380229B011201E250802311
:1032C0005B00636043467B51E0BCBA46B146A8460A
:1032D000F0BD786900F0CCFA013043001B18033BC5
:1032E000FDD2DBE75246012AD0D102321A60023AFF
:1032F000A3681A42FCD04A46236852015A40E02390
:10330000134080225201A218084F136085005046D6
:103310000323216841400B40136001228240A368CF
:103320001A42FCD0C6E7C046008000407020002052
:10333000014B8000C058704770200020F0B5C64691
:10334000040000B5224890461E000D0000F090FADF
:103350000100404600F08CFA069B84461A0323685D
:1033600030041043002B22DB1A4BE218531E9A4103
:1033700080235242120B9B011203D218164B1A6083
:10338000164B1A60164B160019688E43FBD1634624
:1033900021222560A360134BE3181A602268002ADB
:1033A000FCDA0822E0601A6080BCB846F0BD3F231A
:1033B00022681340AB42D7D1A3681B051B0D6345A0
:1033C000D2D1EE22E368D20213408342CCD1EBE7A4
:1033D000001BB7000040FDBF00E0004000F00040CF
:1033E00008C00040043000008C4680211B4BC905FA
:1033F000196000281BD0012319491843194BD961C2
:103400001949414019626146596298628021134B03
:10341000C9051960154816490860E021C9041960FA
:10342000002A07D18022134B12061A6070470D4BF9
:10343000D861EBE753019B1A9B009A180E4B1201BF
:103440009A4209D813000D490B60064B5A6080223E
:10345000084BD2051A60E9E71A00F4E700B005400E
:10346000D3C007B0008005402D3FF84FFCFF01009E
:103470000820014000A00540FFFFFF00DC3C0020C9
:103480008023024A9B000B43D362704700800540B3
:10349000002310B50100988A1B8B984710BDC046C9
:1034A000002310B50100D88A1B8B984710BDC04679
:1034B000F8B54746CE4680B50F1E18D0142399465E
:1034C000043304000025012698464B4618884346DD
:1034D00021681B88984701C4431E98410135064066
:1034E000AF42F2D13000C0BCB946B046F8BD0126AB
:1034F000F8E7C04601207047D0231B061A68EFF397
:10350000108172B6024B92000020D1507047C04625
:10351000CC3C0020D02212061268034B9200D358F4
:1035200083F3108800207047CC3C0020004870478F
:10353000E4120020F8B505000E001700FFF7F6FFB3
:10354000041E1CD04368134A93421ED1D0231B068D
:103550001A68EFF3108172B60F4B9200D150300011
:10356000A847A3680D4A93420CD1D02212061268D4
:10357000094B9200D35883F310880020F8BD042033
:103580004042FBE738009847F8E7380098470028A2
:10359000F4D1E4E7F9340010CC3C002015350010DC
:1035A000AA23064A1B0113608D235B00D3600449E4
:1035B000044B19605368002BFCDA7047004002404E
:1035C00000B0FA00006002407047C04610B50148E4
:1035D000FEF7D6FD8C9F001070B5074D074EB54223
:1035E00009D20024013E761BB608013608CD01340D
:1035F0009847B442FAD170BDD894001014950010C9
:10360000054B064A06491A60064A074B1A60100025
:103610000B689843FBD1704700E00040BFCDFBFE34
:1036200008C00040FE7F3C0000F00040044BDB6C13
:10363000002B03D18022034BD2021A607047C04690
:10364000000011504C201150044A054B1A60054AE5
:103650001368DB018033FBD17047C046FFFFFF01D9
:1036600000F0004008C000404022034B9A675A67B0
:103670001A67DA667047C04600F0014010B5FEF7E1
:103680001FFE10BD70B52749274D284E6D1AAC108E
:103690002200302C00D930223000920000F07EFF52
:1036A000BC2D3CD823002A3B214A052B1CD93020B5
:1036B00075196D07A446001BEB0F002D03DAA1005E
:1036C0007250611C8C46C01AE31845089B00F31821
:1036D000E900C9181A605A6008339942FAD16D009E
:1036E000A8421CD02C006444A300F250631C2F2C71
:1036F00015D09B00F250A31C2E2C10D09B00F25032
:10370000E31C2D2C0BD09B00F250231D2C2C06D03B
:103710009B00F250631D2B2C01D09B00F250054BF7
:103720009E6070BD00010010C0010010000000206C
:10373000C101001000ED00E0002310B5294C82B05B
:10374000A367FFF72DFF0122274B1A60636C012B43
:10375000FCD10322254B1A60224A936B012BFCD12A
:10376000013300930121224A22480433FFF7E6FD8A
:10377000052301210093204A2048FFF7DFFD0022A6
:10378000022104201E4BFFF767FD002201210520C6
:103790001C4BFFF761FD0022002107201A4BFFF7A9
:1037A0005BFD002200210820174BFFF755FD802309
:1037B000DB000093002200210920134BFFF7DAFC05
:1037C0000022104B00210620FFF746FD0420FFF7E2
:1037D000AFFD0E4900F04CF801000020FFF750FE4D
:1037E00002B010BD008000403CB0004030B000404E
:1037F000002F685900800240008C864700C00240BC
:10380000001BB70040597307006CDC0240420F00F8
:1038100001480421014B1847F0120020B134001078
:10382000124A936F9B0815D29066D166002905D085
:10383000FFE7FFE7FFE7516F106F704704B5802186
:103840000906C2175140002800D0C84305F0F4FD16
:10385000002104BDF0B5146E556E576F166FFFF75B
:10386000E3FF1466556657671667F0BD000000D089
:10387000114A936F9B0813D210665166002905D038
:10388000FFE7FFE7FFE7516F106F704704B50028AF
:1038900001D00020C04305F0CFFD002104BDC0468B
:1038A000F0B5146E556E576F166FFFF7E5FF14668F
:1038B000556657671667F0BD000000D094464A4A27
:1038C000926F9208624601D228E0C046F0B5464E9B
:1038D000346E756E776F366F00F020F89446424A6A
:1038E00014665566576716676246F0BD94463E4AB1
:1038F000926F9208624601D254E0C046F0B53A4E4B
:10390000346E756E776F366F00F04CF89446364A19
:1039100014665566576716676246F0BD002B24DBB8
:1039200011D000293EDA00B5C943404200D101312F
:1039300000F038F8C943404200D10131DB43524224
:1039400000D1013300BD002AEBD1002801D10029AC
:1039500005D00020C90FC90701D1C043410800B5F7
:1039600005F052FD0022002300BD00B500290ADB4E
:10397000DB43524200D1013300F014F8C943404206
:1039800000D1013100BDC943404200D10131DB43C8
:10399000524200D1013300F005F8DB43524200D11E
:1039A000013300BD002923D1002B18D1002A0CD0EF
:1039B000BC460D4F38667A6600210023FFE7FFE71B
:1039C000FFE77A6F386F67467047002801D00748D5
:1039D000010000B505F018FD0022002300BD020023
:1039E0000B00002000217047000000D0FFFFFFFF08
:1039F000002B00D0BFE0130C28D1002AE7D080B400
:103A0000114F39667A66FFE7FFE730B4040C7B6F2D
:103A1000396F1B0423433B667A66FFE7FFE7FFE746
:103A2000C04684B27B6F3D6F1B0423433B667A66BE
:103A3000FFE7FFE7C04600232C042D0C7A6F386F98
:103A400000196941B0BC7047000000D0F0B5944641
:103A50000025140E01D112020835140F01D11201F4
:103A60000435940F01D192000235D40F01D15200D8
:103A70000135D40B0134254F7C66254C3C660E0C79
:103A800093B2FFE7FFE7FFE73C6F6643360C77032F
:103A9000BE467343DF0B5B04C01AB941130C73437A
:103AA000DB18C91ACE086643360CB64493B273438A
:103AB0001F0F1B01C01AB941130C73431F0B1B05C9
:103AC000C01AB941860D8F023E436643360C092D5C
:103AD00024DB520A7243801A7703460A6643360C87
:103AE00016235B1BDE40DF40BF1964466643821B22
:103AF0007046043506330100D940A840C01900D3F0
:103B00000131A24206D20023F0BD0000000000D027
:103B1000FFFFFFFF121B0130F3D3F1E709277F1BE3
:103B2000FE406446A2B27243801A00D20139220CD0
:103B30007243130C1204821A99410B00704604352B
:103B400013370100F940A840801900D30131002B40
:103B500002D1A2420AD2F0BD013000D30131121BC2
:103B6000FAD2013BF8D1A24200D2F0BD013000D31D
:103B70000131121BF7E7F0B51C0C00D080E00CB44B
:103B800000251C0A04D11B02160E3343120208350D
:103B90001C0B04D11B01160F3343120104359C0B7F
:103BA00004D19B00960F334392000235DC0B02D107
:103BB00092185B4101351C00971864410134464F4F
:103BC0007C66464C3C660E0CFFE7FFE7FFE7C0460D
:103BD0003C6F6643360C7703BE4697B27743C01BF3
:103BE00000D20139C01B00D201399FB27743C91BF3
:103BF000C91B170C77437E04FF0B801BB941CE080D
:103C00006643360C0C2D33DBB644120B1F053A43CA
:103C10001B0B97B27743C01B00D201399FB2774389
:103C2000C91B170C77433E043F0C801BB941860D1E
:103C30008F023E43664329277F1BFE400C3D77469B
:103C4000AF40BF1930BCA2B2ABB272437343801A0B
:103C50009941220C7243130C1204801A99410200FC
:103C60000B000137001BA941F9D2781E0021F0BDDD
:103C70000C277F1BFE4077467F0BAF40FF19E0E724
:103C800000245D1C07D0144F7D663966FFE7FFE70F
:103C9000FFE7FFE73C6F95B29EB265436643401B6A
:103CA000B141150C1E0C6543664336042F0C3E4390
:103CB0002D04401BB141994204D202000B002000A8
:103CC0000021F0BD01D19042F7D3801A994101340F
:103CD0009942F2D3F6E70000000000D0FFFFFFFF9B
:103CE00048404140484018B41B4B5B68FC46019378
:103CF00008BD04DF8B3F001018B4174B1B68FC464F
:103D0000019308BD00DF953F00109446134A926F5F
:103D1000920809D2624618B40F4BDB68FC46019347
:103D200008BD0CDF4D4200100C4AF0B5146E556E04
:103D3000576F166F6246FFF7EEFF084A1466556626
:103D400057671667F0BD18B4034B9B68FC46019398
:103D500008BD08DFF140001050170020000000D01F
:103D6000FFB550404240504059404B40594000E060
:103D7000FFB5154F4C00640D03D0BC4204D10C03B9
:103D800014D80020090D09055C00640D03D0BC4265
:103D900004D11C030AD800221B0D1B0501264B4031
:103DA00009D44B4003D58B4200D18242FFBD9942DA
:103DB000FCD19042FFBD0B43DB1803431343F5D006
:103DC000C9434918FFBD0000FF07000000B5FFF719
:103DD000CFFF804100BDC04600B5FFF7C9FF01D944
:103DE000002000BD012000BD00B5FFF7B9FF01D9DB
:103DF000002000BD012000BD00B5FFF7B1FF8041EC
:103E000000BD012040054A00121804D85A001218BB
:103E100001D80020704701207047000000210028D1
:103E200005D17047C1174840401AFAD0C90713B5E9
:103E3000064B1B6898470CBC441CA2401005120B93
:103E40000349091B09051943114310BD48400020CF
:103E50001F04000010B54C00620D8023D218DB0057
:103E6000D21A5B057E2A10DD9E3A13DACC170903BD
:103E7000490819435242D140640001341532202AC6
:103E800005DAD0400843604310BD002010BD08464D
:103E9000604310BDC80FC018013810BD18B4044BE2
:103EA0005B6AFC46019308BD24DFFD43001000005F
:103EB00050170020002370B5DD7C012D19D014DDD2
:103EC0001F48FFF7EDFA06001E48FFF7E9FA1E4CFF
:103ED00080223100200000F061FB022D2DD01B4814
:103EE000FFF7D6FA1A4B186070BD1A4B164CA36434
:103EF000F5E7184B144C23606360A360E360236113
:103F00006361A361E36123626362A362E36223638B
:103F10006363A363E36323646364A364E36423656B
:103F20006365A365E36523666366A366E36623674B
:103F30006367A367E367A364D1E7064BA364CEE797
:103F40005344000053460000501700204C3300003B
:103F500048400020593F001007B5604601880A0A12
:103F60000230DF2AFAD1C9B2820804D3028840881D
:103F70000004104300E00068014A5050039007BD60
:103F8000501700200FB403BC0CBCF0B50124E407AB
:103F9000634000E0F0B50C0DCF0F661E3605891B9F
:103FA000640503D3C943404200D30131640D03D0FB
:103FB000661CF60A07D0E41B00207F00791C8907E5
:103FC0008912803C24031D0DDF0F6E1E36059B1BDE
:103FD0006D0503D3DB43524200D301336D0D03D093
:103FE0006E1CF60A07D0ED1B00227F007B1C9B078E
:103FF0009B12803D2D032F1B661B58D4A446202EF8
:1040000046DA20371400BC401D00BD40F240334169
:104010002A4380185941CB0F05D0C943C043002221
:1040200064425041514162464D0D28D10D0D07D1DA
:1040300000281FD0241940414941013A0D0DF9D003
:10404000640006D3013000D30131002C01D14008B7
:104050004000013A0BD4941CE40A04D11205114427
:10406000DB071944F0BDD907204B194300E0D907FD
:104070000020F0BD0029DDD1002CDBD1F0BD0132E4
:10408000C6074008CD0728434908002EE1D0D9E7EC
:104090003C2E29DA203E40371400BC4000D00124D9
:1040A000F24014431A00BB401C43D317ACE7AC46A4
:1040B000202F08DA20360400B4400D00B540F84047
:1040C00039412843A5E73C2F0CDA203F4036040055
:1040D000B44000D00124F84004430800B1400C4330
:1040E000C117EAE710001900002494E70000F07FF0
:1040F000F0B50C0D661E3605891BE60A6405640DD5
:1041000002D0651CED0A04D0002001210905803C85
:104110002403A4461C0D671E3F05DB1BE70A64054C
:10412000640D02D0651CED0A04D0002201231B059A
:10413000803C24037740644497B484B296B27443BD
:10414000070C7E43150C6F4380B26843361802D3C8
:10415000012000043F183004350C00197D418446CD
:1041600088B29AB250430C0C62431F0C7C438EB24F
:104170007E43921902D301263604A4191604170CA3
:104180003618674101BC81B29AB25143040C6243B4
:104190001B0C5C4380B25843121802D30120000468
:1041A00024181004130C401863412D185E410020A0
:1041B000474106BC88B293B258430C0C6343120CBF
:1041C000544389B251435B1802D301210904641896
:1041D00019041A0C091862416D1856410020474114
:1041E00018BCF902720D1143F0026A0D1043ED0282
:1041F0000A0D03D16D1940414941013B124E9B1BF1
:104200007600B3420ED26D0007D301300026714113
:104210006646354301D1400840001B05C918E40734
:104220002144F0BD0BDA013306D1013004D1013154
:104230004F0D01D04908F2E7E1070020F0BD01363B
:1042400031050020EBE70000FF030000F0B51C0D76
:10425000671E3F05DB1BE70A6405640D02D0661C80
:10426000F60A04D0002201231B05803C2403D0253C
:104270002D060026F6432E661E096E66CE0FF61931
:10428000B44649004F0D02D07E1CF60A03D0002030
:104290000021403F3F033E1BB600B444013F7F0571
:1042A000C91B49082E6F013676089C02950D2543DF
:1042B0007543ED137543AD1301356D10F603761B91
:1042C0000CB4CC02450D2C43A2B2B3B25A43270C16
:1042D0007B43350C6F43A4B26C431B1902D30124FA
:1042E00024043F191C041D0CA4187D4124196D41A0
:1042F000009A91B2ACB26143170C7C432B0C5F4324
:1043000092B25A43A41802D301221204BF18220405
:10431000230C52187B41019C6C431B19520ED9018E
:104320000A434401A01A81B2B2B2514303145A4362
:10433000360C734387B27743D617D21900277E41D4
:1043400036049B191704160C7F185E417316ED187E
:10435000F301002680337541A90F06D16400690A74
:10436000E8055B0A184309D22FE004229444803305
:104370007541A90AA8059B0A184326D34041494123
:104380002404009A019B0D005543641B4343E41A27
:1043900095B286B27543170C7E43030C5F4392B20D
:1043A0005A43B61802D301221204BF183204330C48
:1043B00052197B4152429C41002C02D40022013010
:1043C00051414008CA071043490802B06246D70766
:1043D0009210084BD218084B9A4203D21205891842
:1043E000C919F0BD0020002A01DC3900F0BD0133FD
:1043F0001905F5E7FD030000FE070000002200B5E7
:10440000203200F004F8080000BD000000220B1567
:104410000AD410B5944600F031F81414013400DACF
:104420000021CB17144C2047002000217047624424
:10443000343A0CD40C2A07DA0400914090405242DE
:104440002032D440214310BDD843D94310BD20327F
:1044500007D40C469440524220321141D0402043B0
:1044600010BD0800C917203203D452422032104137
:1044700010BD1800190010BD2F4400100A0DCC0FFC
:10448000531E1B05C91A520503D3C943404200D32A
:104490000131520D03D0531CDB0A07D0121B002040
:1044A0006400611C89078912803A1203014BD21AF9
:1044B00070470000FF03000051434343C9188C4676
:1044C000110C83B24B4310B4040C614392B280B21E
:1044D000504362431C041B0C001910BC59411304C7
:1044E000120CC0185141614470470000002310B500
:1044F000DC7C1348FEF7D4FF012C0BD004DD010057
:104500008022104800F04AF80F48FEF7C1FF0F4B19
:10451000186010BD0B4C01005422200000F03EF842
:104520000B4B6365A365E36523666366A366E36679
:1045300023676367A367E3672362E361E4E7C04639
:1045400053460000501800204C3300004840002023
:104550005545001007B5604601880A0A0230DF2A77
:10456000FAD1C9B2820804D30288408800041043FB
:1045700000E00068014A5050039007BD5018002029
:1045800001480421014B184700130020B1340010EA
:10459000014B1B681847000000130020014B5B68AB
:1045A00018470000001300207047C046F8B5DE46EB
:1045B00057464E464546E0B599460D9B070088464E
:1045C00093469B0728D00B9B002B3CD05E460B9C50
:1045D0000A9D3619321B013C4B464146285DB847BF
:1045E000002CF7D135000D9B9B070ED55B46EC1ACE
:1045F0000C9BA34209D91E002A004B4641462020AD
:104600000134B8470135B442F6D32800F0BCBB46AC
:10461000B246A946A046F8BD0B9B0C9A934214D211
:1046200013005D460C000B9A9E1A76192A004B4621
:10463000013521002020B847B542F7D10B9BA04699
:10464000002BC4D1E1E71500CDE7002BBED15D46BC
:10465000DBE7C046F0B54F46D6464646C0B584B007
:104660009C460EAB1F78129B9146BA460D9C109E3D
:10467000119D9B0752D4002D47D1B4424ED2012345
:10468000129F1F40B8460C9B5F1E302303E001348D
:104690003B55A64201D9202CF9D14346002B00D12D
:1046A00083E00C9B5F1E3023A54204D836E0013422
:1046B0003B55AC4232D0202CF9D1129BDB0614D5ED
:1046C000129B5B0553D4A64263D0A54261D00F9BD9
:1046D000102B4FD0022B57D0202C06D023000134B2
:1046E00030260C9AD654202C2AD1129B4A4603938A
:1046F0000C9B0295009301946346FFF757FF04B0AB
:10470000E0BCBA46B146A846F0BD0123129A134058
:1047100098460123134223D1B442B4D3129BDB0643
:10472000E1D5129B5B05D2D4002CCCD10F9B102B72
:1047300054D00F9B022B6AD0302301240C9A1370A3
:104740005346002B07D1129B5B0736D52B230C9ABF
:1047500013550134C9E72D230C9A13550134C4E7CE
:10476000002F32D0013DB44200D28CE799E70F9B75
:10477000102BBAD1129B9B063AD5202CB5D05823CA
:104780000C9A13550134A7E7202CAED02300013436
:1047900007E0631E012CC9D00F9A102A3ED0022ACE
:1047A0009ED162260C9AD65496E7129BDB069AD5C8
:1047B000129B5B0500D486E789E7129B1B0794D503
:1047C00020230C9A135501348FE70C2313405F1EEE
:1047D000BB41ED1AB44200D255E762E7129B9B063B
:1047E0000ED478230C9A02241370483B5370A7E729
:1047F000202C00D179E778230C9A135501346BE70C
:1048000058230C9A02241370283B537098E70C9A93
:1048100060331370323B0224537091E70C9AA61E4A
:104820009619129A920602D55822327058E77822C9
:10483000327055E710B5002800D110BD01F068FCBA
:10484000FBE7C04610B5002803D04A680B6811008A
:10485000984710BDF0B54E46DE4657464546E0B592
:1048600095B082468946934698461E9A1F9B100033
:104870001900209EFFF7C5FA002800D0D3E11E984A
:104880001F990122C34B5242FFF7A0FA002800D023
:1048900001E11E981F990122BF4B5242FFF7ACFA6B
:1048A000002800D0D6E01E981F990022BB4BFFF7CE
:1048B000A3FA002800D0B5E01E981F990022B84B3B
:1048C000FFF784FA002800D0ACE01E981F99002260
:1048D0000023FFF77BFA002800D0D1E000230B93E0
:1048E000229B5B0500D406260024302306E006AA9E
:1048F000013417321355013E202C01D0092EF6D871
:104900001E981F99FFF7A6FAA64BF2009B180CCB36
:10491000050008920993FFF785FA02000B001E9824
:104920001F99FFF7E0F9089A099BFFF70CFA069028
:104930000791FFF7B3FA0700FFF770FA02000B00C8
:1049400006980799FFF7CFF90022974B0690079139
:10495000FFF752FA002800D1E9E001373800FFF7ED
:104960005DFA02000B0008980999FFF735FA002854
:1049700001D000270135002E00D1B7E0069514E0E4
:1049800006AB9C4617230A216344380001341D19E5
:10499000FEF76EFF3031297038000A21013EFEF724
:1049A00067FF092F00D8E0E00700202CE8D10CAB0E
:1049B000069D0693172706ABFF180DE028000A2175
:1049C000FEF72EFF01343031280039550A21FEF759
:1049D00027FF051E00D1B7E0202CEFD10323229A38
:1049E0001340012B17D1219B002B14D00B9B002BC4
:1049F00000D1E1E0219B013B2193202B0BD93023F7
:104A0000219A06E006A9013417310B55944200D3D0
:104A1000A0E0202CF6D1229B01940393219B0293CA
:104A2000069B21E0229B5A460493219B494603930F
:104A300050461E9B1F9C029600930194434600F033
:104A400045F90400200015B0F0BCBB46B246A946AB
:104A5000A046F0BD229B5B070FD40322534B229943
:104A6000019203912199029100935A464346494687
:104A70005046FFF79BFD0400E4E704224C4BEEE7B1
:104A80001E9A1F9B00200021FFF72DF901231E9085
:104A90001F910B9324E70223229A1A40229B06922D
:104AA0009B0700D1A0E05C462600424D08942F1FD2
:104AB0003200E87843464946013DD0470136AF42CF
:104AC000F6D1089C069B0434002BBBD05F46219A8C
:104AD000E31B9A42B6D915002200434649462020DE
:104AE0000134D047E31B9D42F6D8ABE72800FFF71F
:104AF00099F902000B001E981F99FFF7F4F82A4B52
:104B0000002206000F00FFF761F90CAB06930028A6
:104B100000D04FE7002230003900234BFFF76CF93B
:104B2000002800D046E7012301359D4342E70022DB
:104B3000069807991C4BFFF749F9002800D01AE79F
:104B4000002F6BD1013716E70323229A1340012B64
:104B500000D1A7E0202C00D15DE70B9B002B38D0C3
:104B60002D23069A1355013455E73023069D361937
:104B7000202C06D135E006AA013417321355202C1B
:104B80002FD0B442F7D12E230CAA013406929355AC
:104B900010E7C046FFFFEFFFFFFFEF7F65CDCD4180
:104BA00065CDCDC1C0A300100000E03FDC9F001028
:104BB000D49F0010E49F00100C23229A13426CD063
:104BC000219B013B2193A34200D918E7202C00D15F
:104BD00021E7229B5B0718D52B23069A1355013436
:104BE00019E70CAB0693E5E6219B042B00D85AE7A6
:104BF0005D464F462C1FE4182A0043460135390014
:104C00002020D047A542F7D14EE7229B1B0700D4B6
:104C100001E72023069A13550134FCE6FB0700D474
:104C2000A9E60137A7E60227229B1F409B0722D057
:104C30005D4606975746244EEC1C2A00B078434642
:104C400049460135B847013EA542F6D1069F002FDF
:104C500000D1F7E65F46219AE31B934200D3F1E6C9
:104C6000150022004346494620200134D047E31B6B
:104C70009D42F6D8E6E6219B032BD9D95C460697E0
:104C80004F46E51EED18220043460134390020202E
:104C9000D047AC42F7D1069FCBE7219BA34200D976
:104CA000ADE6B8E6219B002B00D153E70B9B002B10
:104CB00082D0219B013B21939C4200D29FE6202C75
:104CC00000D04DE7A7E6C046E09F0010F0B54E4685
:104CD000DE4657464546E0B59BB0249C259D83465D
:104CE000894692461E0022002B0020002900FFF773
:104CF00088F8002800D0C4E00122200029007F4B62
:104D00005242FFF779F8002800D0BAE001222000D3
:104D100029007B4B5242FFF759F8002800D0B0E041
:104D20000022002320002900FFF750F8002800D0BF
:104D300018E208940995089809998023289ADB00BD
:104D40001A400F928022289F120117403A000E97B6
:104D5000289F88460A901F4200D0A7E00B0003431B
:104D600000D0D1E0002A00D024E23A000633269396
:104D70000223134098460223134200D111E200237C
:104D800000270E930233984602330C93002200232F
:104D900020002900FFF71AF8002800D0B3E1594B92
:104DA000289A134004930E9B0393269B0293089B1F
:104DB000099C009301944946330052465846FFF738
:104DC00049FD02002020289B0025034059424B4109
:104DD0005B421840531C0893494633004530D8477E
:104DE000FB17FC185C40FB0F1F270A930C9B0C96CB
:104DF000013B0E930AABFF1806E020000A21FEF7E4
:104E000037FD0400202D08D00A212000FEF730FDD8
:104E1000013530317955092CEFD8052306930E9BC7
:104E20005F460593002304930A3303930A9B0C9E69
:104E3000029312AB0093494633003800089A01955B
:104E4000FFF708FC4346002B29D05346C41A279B82
:104E5000A34224D980461D00534649461A192020F2
:104E600033000134B847A542F6D840465146279C46
:104E7000421A01320023944200D3A9E101301818EC
:104E80000DE0289B009401950493279B0393269B98
:104E900002933300524649465846FFF7DBFC1BB0ED
:104EA000F0BCBB46B246A946A046F0BD01432DD199
:104EB0000E9B3A00002B00D15AE7002700239846AA
:104EC000269BBB4200DD92E1002200232000290046
:104ED000FEF77CFF002800D04CE1289B094A1A40CD
:104EE0008023DB0013430493279B039343460293E1
:104EF000089B099C00930194CBE7C046FFFFEF7F1E
:104F0000FFFFEFFFFFF7FFFF0623269343465800FE
:104F1000BB4B400DC018FEF785FFBA4ABA4BFEF7EF
:104F200012FFBA4ABA4BFEF7E7FE43461F03B94BDE
:104F30003F0B3B430C900D9100220A981900B64B91
:104F4000FEF7D1FEB54AB64BFEF7FDFE02000B00A0
:104F50000C980D99FEF7D0FEFEF77CFF0700FEF7D8
:104F600061FFB04AB04B0A900B91FEF7ECFE0022B5
:104F7000AE4BFEF7C1FEFEF76DFFAD4A80460A98C4
:104F80000B99AC4BFEF7DFFE0A900B914046FEF703
:104F900049FFA94AA94BFEF7D6FE02000B000A986A
:104FA0000B99FEF7A0FE02000B000A900B91FEF792
:104FB000CAFE0C900D910A980B9902000B00FEF7A7
:104FC0009BFE0022109011910C980D999C4BFEF7BE
:104FD0009CFE00229B4BFEF78FFE02000B000C98FC
:104FE0000D99FEF792FE0022974BFEF785FE020018
:104FF0000B000C980D99FEF788FE0A9A0B9B0C90FB
:105000000D9180210020C905FEF76DFE02000B0006
:105010000C980D99FEF770FE02000B001098119984
:10502000FEF773FE00227B4BFEF766FE4346874A7F
:105030000A900B910A980B999B181B050022FEF70A
:1050400082FE02000B00089809990A920B93FEF762
:10505000BDFE002808D00A980B990022794BFEF774
:1050600054FE0A900B91013F0A990B9A0B00110014
:105070003A006332C62A57D80222289810400E9A66
:105080008046002A00D198E004220C920B4300D104
:1050900014E7089809996E4A6E4BFEF7A5FE0028A2
:1050A00008D00898099900226B4BFEF78FFE002864
:1050B00000D003E7269B002B48D00F9B002B45D048
:1050C000269B0C9A013B2693279B934205D9434686
:1050D000002B00D182E00223984600230E93002F7C
:1050E00000D153E60A9A0B9B08980999FEF70DFE2A
:1050F000002208900991002320002900FEF766FE97
:10510000002800D14BE6089C099D289A8020534B2B
:1051100000061340220004930E9B0393269B0293E8
:105120002B180092019346E60222289810400E9A0E
:105130008046002A32D1279B052B04D900285AD15A
:10514000279B053B0E9305230C93CBE7279B0C9ADB
:105150009342C2D94346002B40D000230E93023322
:105160009846BCE780231B069C46AC4463460894E3
:105170000993E0E5289B394A8020089C099D1A4044
:105180008023DB0013430493279B220003934346B1
:10519000000602932B18009201937AE605220C92E6
:1051A00074E7279B042B17D3043B0E93042300279B
:1051B0000C93EBE50523984686E6279B042B04D940
:1051C00000280FD1279B043B0E9304230C9386E702
:1051D0004B1E1B191B1A51E60423E5E7279B9B1A5C
:1051E0000E937CE704230C93023B984677E7DB1B86
:1051F000013B984668E60223984603330C9371E717
:1052000001FCFFFFFB799F501344D33FB3C8608B71
:10521000288AC63F0000F03F0000F83F61436F63FB
:10522000A787D23F71A379094F930A400000E03F5E
:105230001655B5BBB16B0240EF39FAFE422EE63F80
:1052400000002C400000244000001840FF03000034
:105250002D431CEBE2361A3F80842E41FFF7FFFFFF
:10526000F0B55746DE464E464546E0B59FB01F00B6
:10527000289B92460B93C64AC64B8B460A901A60EF
:10528000002900D102E2002338789946002800D195
:1052900004E2C14B5D460993C04B56460D934B4605
:1052A00008930BE0089A3300904629000A9CA04717
:1052B0004346013308933878002876D001372528F3
:1052C000F0D110239B46083B9A46043B9946023B8B
:1052D0009846013B00229C463878791C0300203B0D
:1052E000DBB2102B03D8099C9B00E3589F460300B8
:1052F000303B092B00D8E2E0002398462A2800D151
:1053000032E100230C932E2800D1C7E068235B42D2
:105310009C4684446346DBB2122B1DD89B001C00C4
:105320000D9B1B599F4663460F001A43D4E7434623
:105330000F001A43D0E74B460F001A43CCE75B46F9
:105340000F001A43C8E753460F001A43C4E78020F2
:1053500040000243787801310F0065283ED8462886
:1053600000D9C2E025289DD024289BD9452800D10A
:1053700092E2462896D120210A4307200B990492F5
:105380004246CB1D8343190003920C9A0A9802925D
:105390000CC9009201930B9133002900089AFFF782
:1053A00059FA08903878002888D1089BAB4699466E
:1053B000B2461C00CA4503D801235B4253449946B8
:1053C00053464A46594600200A9DA84720001FB070
:1053D000F0BCBB46B246A946A046F0BD782800D92D
:1053E00060E7682800D85BE1010001236939C9B290
:1053F0008B409C4661466A4B1C0019406346234221
:1054000000D06CE1732800D1D0E0702800D049E7CB
:105410000B9B01CB84469846002800D0F1E1102078
:105420001300834311301843520521D40EAB62465A
:105430009C461F2363441C000F239C46089B834605
:1054400099460C9B9A4602E0120920290BD063462C
:10545000134018003730092B01D8303318000131C0
:1054600060540F2AF0D84B460893534658460C9385
:105470000C9B08220493102303930023029316AB82
:10548000069005920191009329003300089A0A982A
:10549000FFF7E0F8434608900B930CE78020303B81
:1054A0009946C0000243787881444B46092B00D8C6
:1054B00088E12A2800D197E10F00013126E7002377
:1054C00094461F00089C00E00131BB00DB195B0023
:1054D0001F180878303F0300303B092BF4D9B84639
:1054E00062460F00089401310BE7010001234739A0
:1054F000C9B28B4019002B4B194200D0AAE22A4BAB
:10550000194200D0C2E1632800D0CBE6089B0133EA
:1055100099460B9B04339A46920700D468E2089A96
:105520000B9B93461878290033000A9CA0475B46E2
:10553000434408934346012B00D804E32B004C4618
:10554000B9461F00B046089D0A9E2200434601341A
:1055500039002020B047AC42F7D153460895464663
:105560003D000B934F46A6E60B9B01CB80460028DF
:1055700004DB0F0008780B930131C2E602200243DE
:105580004046404280460F0008780B930131B8E650
:1055900061520010D83C002030A3001074A300100A
:1055A0004190000000000228010000400B9B02CB4C
:1055B0008A460C999B46002900D120E15346187871
:1055C00051448C465146002800D1E2E30C9B089CD4
:1055D0009946634694461A004B780131002B01D05E
:1055E0009142F9D14B460C9353466246CB1A08942C
:1055F0001093510500D407E1109B0C998B4200D900
:10560000109102210B0013400E93114200D126E3AA
:1056100002230E930C9B089A994653469B1A9A466E
:105620004346089353469144BA46A8461F004D4648
:10563000B1460A9E08E0541C4B464146B047385DCF
:10564000002800D184E122009542F4D14E46A946BB
:10565000089B454698464B4657460893F1E07878B4
:105660006C2800D16EE180277F003A43013173E658
:10567000802080000243013178786DE678786828D0
:1056800000D15AE1802701313A4365E6D74B38789B
:105690000A9300239946002800D0FAE5002489E601
:1056A000662800D169E6672800D0FBE58021090162
:1056B0000A4307200B9904924246CB1D83431900ED
:1056C00003920C9A0A9802920CC9009201930B91D2
:1056D00033002900089AFFF7F9FA0890EBE56F28E4
:1056E00000D1DCE000D9AAE1102113008B439C46D5
:1056F000692800D078E380211300C9000B409A4646
:105700000A4203D01120824394468A468021624691
:10571000634689000A400B4200D120E108239946E4
:105720000B9AFA39FF3907328A4391444B4606CA2D
:105730000B930E910F92002A00DCDEE100239A46C3
:10574000002399460EAB9B461F235B449B46634652
:1057500010934346B84611935F46B3464E46A9465A
:105760000E9C0F9D03E004000D00202E0CD00A2299
:10577000002320002900FEF7B9F801363032BA556F
:10578000002DF0D1092CEED8109B47469C46119B6A
:105790004D469846B1465E4663460693434605939A
:1057A0000C9B04930A230393534602934B460193A5
:1057B00016AB009329003300089A0A98FEF74AFFB7
:1057C000089078E50F000021089C8B005B185B00B7
:1057D00001371918387830390300303B092BF4D9D8
:1057E0000C910894791C91E50B99023708C9D843AC
:1057F000C01703400B9138780C93791C86E501396A
:10580000DCE62120104311E602210B0013400E9329
:10581000114200D15CE202230E935346089CB1462C
:105820001B1B1E00BA462F000A9D22004B46390062
:105830000134A847305D0028F7D13D004E46574659
:1058400008945B460B930E9B002B00D133E5089B1D
:105850009946109B984500D8BBE2089C4444E21A44
:105860002B004C461500B9461F00B0460A9E220088
:105870004346013439002020B047AC42F7D15B46A3
:10588000089546463D000B934F4614E5472800D047
:105890000FE7802109010A4320210A4309E7082371
:1058A0009C460023109308330E9380211000C900FA
:1058B00008400A4200D1D8E00D218A43110080221D
:1058C0000B00920013409A46114200D041E1802221
:1058D0000B005200134099460B9B043310930B9B13
:1058E000114200D0FAE14A0600D522E10A0600D4AE
:1058F00061E21B889A465346002B00D070E11022CB
:105900009143002800D16BE100239946434605935B
:105910000C9B069104930E9B0393002302934B462A
:10592000019316AB009329003300089A0A98FEF7FA
:1059300091FE109B08900B93BDE4C021B8780A43F8
:10594000F91C09E5C02189000A43B878F91C03E570
:10595000089B4546574698464E46089471E7802175
:1059600049000B4099460B9B181D0E90604608425B
:1059700000D07EE0420600D4F7E10B9B1A78002AA3
:1059800000D1ECE1924600220EAB9B461F235B4404
:105990009B46634654460B93AA4610924D46B94621
:1059A0005F46B34606E020000A21FDF761FF0400D0
:1059B000202D08D00A212000FDF75AFF0135303193
:1059C0007955092CEFD80B9B4F469C46A9465E465D
:1059D0005546109A63460693434605930C9B0292E4
:1059E00004930A2303934B46019379E0A9450010E1
:1059F0004346012B00D89FE0089AB146531E43440A
:105A00009B462B0014005D46BB461F000A9E2200E9
:105A10004B46013439002020B047AC42F7D13D005D
:105A20004E46089B2200434408930B9B290018789C
:105A30000A9C3300A04753465F460B933BE478280B
:105A40000CD00A239C460023102110930A338A436A
:105A50000E932AE7582862D120210A4310239C463E
:105A60000023109310330E931FE70C218A4311007B
:105A700025E71B68994600230B934B46002B00DC5F
:105A800080E10EAB9A461F2353449B4663464C4627
:105A9000AA46B94615005F461093B34606E02000BB
:105AA0000A21FDF7E5FE0400202D08D00A21200080
:105AB000FDF7DEFE013530317955092CEFD8109B0A
:105AC0002A009C464F4655465E466346069343462B
:105AD00005930C9B019204930A2303930B9B02935F
